{
  "contractName": "MonkeyElection",
  "abi": [
    {
      "constant": true,
      "inputs": [],
      "name": "chairperson",
      "outputs": [
        {
          "name": "",
          "type": "address"
        }
      ],
      "payable": false,
      "stateMutability": "view",
      "type": "function"
    },
    {
      "constant": true,
      "inputs": [
        {
          "name": "",
          "type": "uint256"
        }
      ],
      "name": "candidates",
      "outputs": [
        {
          "name": "name",
          "type": "bytes32"
        },
        {
          "name": "voteCount",
          "type": "uint256"
        }
      ],
      "payable": false,
      "stateMutability": "view",
      "type": "function"
    },
    {
      "constant": true,
      "inputs": [
        {
          "name": "",
          "type": "address"
        }
      ],
      "name": "voters",
      "outputs": [
        {
          "name": "weight",
          "type": "uint256"
        },
        {
          "name": "voted",
          "type": "bool"
        },
        {
          "name": "delegate",
          "type": "address"
        },
        {
          "name": "vote",
          "type": "uint256"
        }
      ],
      "payable": false,
      "stateMutability": "view",
      "type": "function"
    },
    {
      "inputs": [],
      "payable": false,
      "stateMutability": "nonpayable",
      "type": "constructor"
    }
  ],
  "bytecode": "0x608060405234801561001057600080fd5b50336000806101000a81548173ffffffffffffffffffffffffffffffffffffffff021916908373ffffffffffffffffffffffffffffffffffffffff16021790555061008a6000809054906101000a900473ffffffffffffffffffffffffffffffffffffffff1661016f640100000000026401000000009004565b6100c27f526163697374204d6f6e6b65790000000000000000000000000000000000000061026d640100000000026401000000009004565b6100fa7f536164204d6f6e6b65790000000000000000000000000000000000000000000061026d640100000000026401000000009004565b6101327f4861707079204d6f6e6b6579000000000000000000000000000000000000000061026d640100000000026401000000009004565b61016a7f506561636566756c204d6f6e6b6579000000000000000000000000000000000061026d640100000000026401000000009004565b6102ca565b60806040519081016040528060018152602001600015158152602001600073ffffffffffffffffffffffffffffffffffffffff1681526020016000815250600160008373ffffffffffffffffffffffffffffffffffffffff1673ffffffffffffffffffffffffffffffffffffffff1681526020019081526020016000206000820151816000015560208201518160010160006101000a81548160ff02191690831515021790555060408201518160010160016101000a81548173ffffffffffffffffffffffffffffffffffffffff021916908373ffffffffffffffffffffffffffffffffffffffff1602179055506060820151816002015590505050565b60026040805190810160405280838152602001600081525090806001815401808255809150509060018203906000526020600020906002020160009091929091909150600082015181600001556020820151816001015550505050565b610274806102d96000396000f3fe608060405234801561001057600080fd5b506004361061005e576000357c0100000000000000000000000000000000000000000000000000000000900480632e4176cf146100635780633477ee2e146100ad578063a3ec138d146100f6575b600080fd5b61006b610193565b604051808273ffffffffffffffffffffffffffffffffffffffff1673ffffffffffffffffffffffffffffffffffffffff16815260200191505060405180910390f35b6100d9600480360360208110156100c357600080fd5b81019080803590602001909291905050506101b8565b604051808381526020018281526020019250505060405180910390f35b6101386004803603602081101561010c57600080fd5b81019080803573ffffffffffffffffffffffffffffffffffffffff1690602001909291905050506101eb565b60405180858152602001841515151581526020018373ffffffffffffffffffffffffffffffffffffffff1673ffffffffffffffffffffffffffffffffffffffff16815260200182815260200194505050505060405180910390f35b6000809054906101000a900473ffffffffffffffffffffffffffffffffffffffff1681565b6002818154811015156101c757fe5b90600052602060002090600202016000915090508060000154908060010154905082565b60016020528060005260406000206000915090508060000154908060010160009054906101000a900460ff16908060010160019054906101000a900473ffffffffffffffffffffffffffffffffffffffff1690806002015490508456fea165627a7a723058204d37533ced9778b35df9740ef6982ac8ca0d5261f68a9f07b78db61d8951e04a0029",
  "source": "pragma solidity >=0.5.2 <0.7.0;\n\ncontract MonkeyElection {\n    // Model a Monkey Candidate\n    struct Candidate {\n        bytes32 name;\n        uint256 voteCount;\n    }\n\n    // Model a Monkey voters\n    struct Voter {\n        uint256 weight; // Number of delegation to this voters (1 by default)\n        bool voted; // Is this voter already voted ?\n        address delegate; // To who this voter delegate his vote, if any ?\n        uint256 vote; // For wich candidate this voter voted\n    }\n\n    // The responsible for this monkey election\n    address public chairperson;\n\n    // Map a blockchain address to a voter\n    mapping(address => Voter) public voters;\n\n    // List of all of our candidates\n    Candidate[] public candidates;\n\n    // Constructor\n    constructor() public {\n        // The address who init this class is the leader of this election\n        chairperson = msg.sender;\n        addVoter(chairperson);\n\n        // Add some base candidate\n        addCandidate(\"Racist Monkey\");\n        addCandidate(\"Sad Monkey\");\n        addCandidate(\"Happy Monkey\");\n        addCandidate(\"Peaceful Monkey\");\n    }\n\n    // Function to add a voters to our voter pool\n    function addVoter(address _voteraddr) private {\n        voters[_voteraddr] = Voter(\n            1,\n            false,\n            address(0),\n            0\n        );\n    }\n\n    // Function to add a candidate\n    function addCandidate(bytes32 _name) private {\n        candidates.push(Candidate(\n            _name,\n            0\n        ));\n    }\n\n}\n",
  "sourcePath": "/common/Workspace/03_Supinfo/10_5BLOC/5BLOC-VotingProject/MonkeyVotingAngularMaterial/Contracts/contracts/MonkeyElection.sol",
  "compiler": {
    "name": "solc",
    "version": "0.5.2+commit.1df8f40c.Emscripten.clang"
  },
  "schemaVersion": "3.0.23",
  "updatedAt": "2020-03-13T10:20:04.539Z",
  "devdoc": {
    "methods": {}
  },
  "userdoc": {
    "methods": {}
  }
}