{
  "contractName": "MonkeyElection",
  "abi": [
    {
      "inputs": [],
      "payable": false,
      "stateMutability": "nonpayable",
      "type": "constructor"
    },
    {
      "constant": true,
      "inputs": [
        {
          "internalType": "uint256",
          "name": "",
          "type": "uint256"
        }
      ],
      "name": "candidates",
      "outputs": [
        {
          "internalType": "bytes32",
          "name": "name",
          "type": "bytes32"
        },
        {
          "internalType": "uint256",
          "name": "voteCount",
          "type": "uint256"
        }
      ],
      "payable": false,
      "stateMutability": "view",
      "type": "function"
    },
    {
      "constant": true,
      "inputs": [],
      "name": "chairperson",
      "outputs": [
        {
          "internalType": "address",
          "name": "",
          "type": "address"
        }
      ],
      "payable": false,
      "stateMutability": "view",
      "type": "function"
    },
    {
      "constant": true,
      "inputs": [
        {
          "internalType": "address",
          "name": "",
          "type": "address"
        }
      ],
      "name": "voters",
      "outputs": [
        {
          "internalType": "uint256",
          "name": "weight",
          "type": "uint256"
        },
        {
          "internalType": "bool",
          "name": "voted",
          "type": "bool"
        },
        {
          "internalType": "address",
          "name": "delegate",
          "type": "address"
        },
        {
          "internalType": "uint256",
          "name": "vote",
          "type": "uint256"
        },
        {
          "internalType": "bool",
          "name": "isValue",
          "type": "bool"
        }
      ],
      "payable": false,
      "stateMutability": "view",
      "type": "function"
    },
    {
      "constant": false,
      "inputs": [
        {
          "internalType": "bytes32",
          "name": "_name",
          "type": "bytes32"
        }
      ],
      "name": "addCandidate",
      "outputs": [],
      "payable": false,
      "stateMutability": "nonpayable",
      "type": "function"
    },
    {
      "constant": true,
      "inputs": [],
      "name": "getCandidatesCount",
      "outputs": [
        {
          "internalType": "uint256",
          "name": "",
          "type": "uint256"
        }
      ],
      "payable": false,
      "stateMutability": "view",
      "type": "function"
    },
    {
      "constant": true,
      "inputs": [],
      "name": "getCurrentVoterProfile",
      "outputs": [
        {
          "components": [
            {
              "internalType": "uint256",
              "name": "weight",
              "type": "uint256"
            },
            {
              "internalType": "bool",
              "name": "voted",
              "type": "bool"
            },
            {
              "internalType": "address",
              "name": "delegate",
              "type": "address"
            },
            {
              "internalType": "uint256",
              "name": "vote",
              "type": "uint256"
            },
            {
              "internalType": "bool",
              "name": "isValue",
              "type": "bool"
            }
          ],
          "internalType": "struct MonkeyElection.Voter",
          "name": "",
          "type": "tuple"
        }
      ],
      "payable": false,
      "stateMutability": "view",
      "type": "function"
    },
    {
      "constant": false,
      "inputs": [
        {
          "internalType": "uint256",
          "name": "candidate",
          "type": "uint256"
        }
      ],
      "name": "vote",
      "outputs": [],
      "payable": false,
      "stateMutability": "nonpayable",
      "type": "function"
    },
    {
      "constant": false,
      "inputs": [
        {
          "internalType": "address",
          "name": "toWho",
          "type": "address"
        }
      ],
      "name": "delegate",
      "outputs": [],
      "payable": false,
      "stateMutability": "nonpayable",
      "type": "function"
    }
  ],
  "bytecode": "0x60806040523480156200001157600080fd5b50600080546001600160a01b03191633179081905562000043906001600160a01b03166001600160e01b03620000d716565b620000676c526163697374204d6f6e6b657960981b6001600160e01b03620001a616565b6200008869536164204d6f6e6b657960b01b6001600160e01b03620001a616565b620000ab6b4861707079204d6f6e6b657960a01b6001600160e01b03620001a616565b620000d16e506561636566756c204d6f6e6b657960881b6001600160e01b03620001a616565b620002f6565b3360009081526001602052604090206003015460ff1615620001165760405162461bcd60e51b81526004016200010d90620002db565b60405180910390fd5b6040805160a08101825260018082526000602080840182815284860183815260608601848152608087018681526001600160a01b03998a168652938690529690932094518555519284018054925190961661010002610100600160a81b031993151560ff199384161793909316929092179094559151600282015590516003909101805491151591909216179055565b6000546001600160a01b03163314620001d35760405162461bcd60e51b81526004016200010d90620002c3565b6040805180820190915290815260006020820181815260028054600181018255928190529251919092027f405787fa12a823e0f2b7631cc41b3ba8828b3321ca811111fa75cd3aa3bb5ace81019190915590517f405787fa12a823e0f2b7631cc41b3ba8828b3321ca811111fa75cd3aa3bb5acf90910155565b60006200025c602783620002ed565b7f596f7520617265206e6f7420746865206c6561646572206f66207468697320658152663632b1ba34b7b760c91b602082015260400192915050565b6000620002a7600d83620002ed565b6c105b1c9958591e48195e1a5cdd609a1b815260200192915050565b60208082528101620002d5816200024d565b92915050565b60208082528101620002d58162000298565b90815260200190565b6109f880620003066000396000f3fe608060405234801561001057600080fd5b50600436106100885760003560e01c80633477ee2e1161005b5780633477ee2e146100e85780635c19a95c14610109578063a3ec138d1461011c578063bb9aa28f1461014057610088565b80630121b93f1461008d57806305717640146100a2578063230d6ed8146100c05780632e4176cf146100d3575b600080fd5b6100a061009b36600461062b565b610155565b005b6100aa61021a565b6040516100b79190610905565b60405180910390f35b6100a06100ce36600461062b565b610286565b6100db61032a565b6040516100b79190610865565b6100fb6100f636600461062b565b610339565b6040516100b7929190610873565b6100a0610117366004610605565b610364565b61012f61012a366004610605565b6104b5565b6040516100b7959493929190610921565b6101486104f2565b6040516100b79190610913565b3360009081526001602052604090206003015460ff1661017857610178336104f8565b33600090815260016020526040902080546101ae5760405162461bcd60e51b81526004016101a590610895565b60405180910390fd5b600181015460ff16156101d35760405162461bcd60e51b81526004016101a5906108b5565b6001818101805460ff19169091179055600280820183905581548154909190849081106101fc57fe5b60009182526020909120600160029092020101805490910190555050565b6102226105bb565b5033600090815260016020818152604092839020835160a081018552815481529281015460ff80821615159385019390935261010090046001600160a01b031693830193909352600283015460608301526003909201549091161515608082015290565b6000546001600160a01b031633146102b05760405162461bcd60e51b81526004016101a5906108e5565b6040805180820190915290815260006020820181815260028054600181018255928190529251919092027f405787fa12a823e0f2b7631cc41b3ba8828b3321ca811111fa75cd3aa3bb5ace81019190915590517f405787fa12a823e0f2b7631cc41b3ba8828b3321ca811111fa75cd3aa3bb5acf90910155565b6000546001600160a01b031681565b6002818154811061034657fe5b60009182526020909120600290910201805460019091015490915082565b6001600160a01b03811633141561038d5760405162461bcd60e51b81526004016101a5906108c5565b3360009081526001602081905260409091209081015460ff16156103c35760405162461bcd60e51b81526004016101a5906108d5565b815b6001600160a01b03811660009081526001602052604090206003015460ff1615610432576001600160a01b03908116600090815260016020819052604090912001546101009004163381141561042d5760405162461bcd60e51b81526004016101a5906108a5565b6103c5565b6001828101805460ff19168217610100600160a81b0319166101006001600160a01b038516908102919091179091556000908152602082905260409020835481540181559081015460ff16156104af5782546002828101548154811061049457fe5b60009182526020909120600160029092020101805490910190555b50505050565b6001602081905260009182526040909120805491810154600282015460039092015460ff808316936101009093046001600160a01b031692911685565b60025490565b3360009081526001602052604090206003015460ff161561052b5760405162461bcd60e51b81526004016101a5906108f5565b6040805160a08101825260018082526000602080840182815284860183815260608601848152608087018681526001600160a01b03998a168652938690529690932094518555519284018054925190961661010002610100600160a81b031993151560ff199384161793909316929092179094559151600282015590516003909101805491151591909216179055565b6040805160a08101825260008082526020820181905291810182905260608101829052608081019190915290565b80356105f481610995565b92915050565b80356105f4816109ac565b60006020828403121561061757600080fd5b600061062384846105e9565b949350505050565b60006020828403121561063d57600080fd5b600061062384846105fa565b61065281610976565b82525050565b61065281610981565b61065281610986565b600061067760148361096d565b73486173206e6f20726967687420746f20766f746560601b815260200192915050565b60006106a760238361096d565b7f466f756e64206c6f6f7020696e2064656c65676174696f6e2c2061626f72746981526237339760e91b602082015260400192915050565b60006106ec600e8361096d565b6d20b63932b0b23c903b37ba32b21760911b815260200192915050565b600061071660398361096d565b7f596f752063616e27742064656c656761746520796f757220766f746520746f2081527f796f757273656c662c2073747570696420626173746172642e00000000000000602082015260400192915050565b600061077560128361096d565b712cb7ba9030b63932b0b23c903b37ba32b21760711b815260200192915050565b60006107a360278361096d565b7f596f7520617265206e6f7420746865206c6561646572206f66207468697320658152663632b1ba34b7b760c91b602082015260400192915050565b60006107ec600d8361096d565b6c105b1c9958591e48195e1a5cdd609a1b815260200192915050565b805160a08301906108198482610661565b50602082015161082c6020850182610658565b50604082015161083f6040850182610649565b5060608201516108526060850182610661565b5060808201516104af6080850182610658565b602081016105f48284610649565b604081016108818285610661565b61088e6020830184610661565b9392505050565b602080825281016105f48161066a565b602080825281016105f48161069a565b602080825281016105f4816106df565b602080825281016105f481610709565b602080825281016105f481610768565b602080825281016105f481610796565b602080825281016105f4816107df565b60a081016105f48284610808565b602081016105f48284610661565b60a0810161092f8288610661565b61093c6020830187610658565b6109496040830186610649565b6109566060830185610661565b6109636080830184610658565b9695505050505050565b90815260200190565b60006105f482610989565b151590565b90565b6001600160a01b031690565b61099e81610976565b81146109a957600080fd5b50565b61099e8161098656fea365627a7a7231582049d7810c7f97d2e353aa12c2822a50290b200090db5dc16911d8ede30997c4e16c6578706572696d656e74616cf564736f6c63430005100040",
  "source": "pragma solidity >=0.4.22 <0.7.0;\npragma experimental ABIEncoderV2;\n\ncontract MonkeyElection {\n    // Model a Monkey Candidate\n    struct Candidate {\n        bytes32 name;\n        uint256 voteCount;\n    }\n\n    // Model a Monkey voters\n    struct Voter {\n        uint256 weight; // Number of delegation to this voters (1 by default)\n        bool voted; // Is this voter already voted ?\n        address delegate; // To who this voter delegate his vote, if any ?\n        uint256 vote; // For wich candidate this voter voted\n        bool isValue; // Is this voter a correct value ?\n    }\n\n    // The responsible for this monkey election\n    address public chairperson;\n\n    // Map a blockchain address to a voter\n    mapping(address => Voter) public voters;\n\n    // List of all of our candidates\n    Candidate[] public candidates;\n\n    // Constructor\n    constructor() public {\n        // The address who init this class is the leader of this election\n        chairperson = msg.sender;\n        addVoter(chairperson);\n\n        // Add some base candidate\n        addCandidate(\"Racist Monkey\");\n        addCandidate(\"Sad Monkey\");\n        addCandidate(\"Happy Monkey\");\n        addCandidate(\"Peaceful Monkey\");\n    }\n\n    // Function to add a voters to our voter pool\n    function addVoter(address _voteraddr) private {\n        require(!voters[msg.sender].isValue, \"Already exist\");\n        voters[_voteraddr] = Voter(1, false, address(0), 0, true);\n    }\n\n    // Function to add a candidate\n    function addCandidate(bytes32 _name) public {\n        require(\n            msg.sender == chairperson,\n            \"You are not the leader of this election\"\n        );\n        candidates.push(Candidate(_name, 0));\n    }\n\n    // Function to get the number of candidates\n    function getCandidatesCount() public view returns (uint256) {\n        return candidates.length;\n    }\n\n    // Function to get the number of candidates\n    function getCurrentVoterProfile() public view returns (Voter memory) {\n        return voters[msg.sender];\n    }\n\n    /// Vote for a candidate to the election\n    function vote(uint256 candidate) public {\n        // Find the voter and check infos\n        if (!voters[msg.sender].isValue) {\n            // If the voter doesn't exist yet we create it\n            addVoter(msg.sender);\n        }\n        Voter storage voter = voters[msg.sender];\n        require(voter.weight != 0, \"Has no right to vote\");\n        require(!voter.voted, \"Already voted.\");\n\n        // Tell for who he voted and if he have voted\n        voter.voted = true;\n        voter.vote = candidate;\n\n        // Add the vote to the candidate\n        candidates[candidate].voteCount += voter.weight;\n    }\n\n    /// Delegate your vote to the voter `to`.\n    function delegate(address toWho) public {\n        require(toWho != msg.sender, \"You can't delegate your vote to yourself, stupid bastard.\");\n\n        // Find the original voter\n        Voter storage sender = voters[msg.sender];\n        require(!sender.voted, \"You already voted.\");\n\n        // Recurcivelly delegate the votes\n        address finalDelegateAddress = toWho;\n        while (voters[finalDelegateAddress].isValue) {\n            finalDelegateAddress = voters[finalDelegateAddress].delegate;\n\n            // We found a loop in the delegation, not allowed.\n            require(finalDelegateAddress != msg.sender, \"Found loop in delegation, aborting.\");\n        }\n\n        // Block the user that delegate his vote\n        sender.voted = true;\n        sender.delegate = finalDelegateAddress;\n\n        // Find the person to wich the vote go and increase his weight\n        Voter storage delegate_ = voters[finalDelegateAddress];\n        delegate_.weight += sender.weight;\n        if (delegate_.voted) {\n            // Increment the vote count of the delegated person if he already vote\n            candidates[delegate_.vote].voteCount += sender.weight;\n        }\n    }\n\n}\n",
  "sourcePath": "/common/Workspace/03_Supinfo/10_5BLOC/5BLOC-VotingProject/MonkeyVotingDapp/contracts/MonkeyElection.sol",
  "compiler": {
    "name": "solc",
    "version": "0.5.16+commit.9c3226ce.Emscripten.clang"
  },
  "schemaVersion": "3.0.23",
  "updatedAt": "2020-03-18T13:48:13.504Z",
  "devdoc": {
    "methods": {}
  },
  "userdoc": {
    "methods": {
      "delegate(address)": {
        "notice": "Delegate your vote to the voter `to`."
      },
      "vote(uint256)": {
        "notice": "Vote for a candidate to the election"
      }
    }
  }
}