{
  "contractName": "MonkeyElection",
  "abi": [
    {
      "inputs": [],
      "payable": false,
      "stateMutability": "nonpayable",
      "type": "constructor"
    },
    {
      "constant": true,
      "inputs": [
        {
          "internalType": "uint256",
          "name": "",
          "type": "uint256"
        }
      ],
      "name": "candidates",
      "outputs": [
        {
          "internalType": "bytes32",
          "name": "name",
          "type": "bytes32"
        },
        {
          "internalType": "uint256",
          "name": "voteCount",
          "type": "uint256"
        }
      ],
      "payable": false,
      "stateMutability": "view",
      "type": "function"
    },
    {
      "constant": true,
      "inputs": [],
      "name": "chairperson",
      "outputs": [
        {
          "internalType": "address",
          "name": "",
          "type": "address"
        }
      ],
      "payable": false,
      "stateMutability": "view",
      "type": "function"
    },
    {
      "constant": true,
      "inputs": [
        {
          "internalType": "address",
          "name": "",
          "type": "address"
        }
      ],
      "name": "voters",
      "outputs": [
        {
          "internalType": "uint256",
          "name": "weight",
          "type": "uint256"
        },
        {
          "internalType": "bool",
          "name": "voted",
          "type": "bool"
        },
        {
          "internalType": "address",
          "name": "delegate",
          "type": "address"
        },
        {
          "internalType": "uint256",
          "name": "vote",
          "type": "uint256"
        },
        {
          "internalType": "bool",
          "name": "isValue",
          "type": "bool"
        }
      ],
      "payable": false,
      "stateMutability": "view",
      "type": "function"
    },
    {
      "constant": false,
      "inputs": [],
      "name": "participateToElection",
      "outputs": [],
      "payable": false,
      "stateMutability": "nonpayable",
      "type": "function"
    },
    {
      "constant": false,
      "inputs": [
        {
          "internalType": "bytes32",
          "name": "_name",
          "type": "bytes32"
        }
      ],
      "name": "addCandidate",
      "outputs": [],
      "payable": false,
      "stateMutability": "nonpayable",
      "type": "function"
    },
    {
      "constant": true,
      "inputs": [],
      "name": "getCandidatesCount",
      "outputs": [
        {
          "internalType": "uint256",
          "name": "",
          "type": "uint256"
        }
      ],
      "payable": false,
      "stateMutability": "view",
      "type": "function"
    },
    {
      "constant": true,
      "inputs": [],
      "name": "getCurrentVoterProfile",
      "outputs": [
        {
          "components": [
            {
              "internalType": "uint256",
              "name": "weight",
              "type": "uint256"
            },
            {
              "internalType": "bool",
              "name": "voted",
              "type": "bool"
            },
            {
              "internalType": "address",
              "name": "delegate",
              "type": "address"
            },
            {
              "internalType": "uint256",
              "name": "vote",
              "type": "uint256"
            },
            {
              "internalType": "bool",
              "name": "isValue",
              "type": "bool"
            }
          ],
          "internalType": "struct MonkeyElection.Voter",
          "name": "",
          "type": "tuple"
        }
      ],
      "payable": false,
      "stateMutability": "view",
      "type": "function"
    },
    {
      "constant": false,
      "inputs": [
        {
          "internalType": "uint256",
          "name": "_candidate",
          "type": "uint256"
        }
      ],
      "name": "vote",
      "outputs": [],
      "payable": false,
      "stateMutability": "nonpayable",
      "type": "function"
    },
    {
      "constant": false,
      "inputs": [
        {
          "internalType": "address",
          "name": "_toWho",
          "type": "address"
        }
      ],
      "name": "delegate",
      "outputs": [],
      "payable": false,
      "stateMutability": "nonpayable",
      "type": "function"
    },
    {
      "constant": false,
      "inputs": [
        {
          "internalType": "uint256",
          "name": "_newEndDate",
          "type": "uint256"
        }
      ],
      "name": "changeEndDate",
      "outputs": [],
      "payable": false,
      "stateMutability": "nonpayable",
      "type": "function"
    },
    {
      "constant": true,
      "inputs": [],
      "name": "getEndDate",
      "outputs": [
        {
          "internalType": "uint256",
          "name": "",
          "type": "uint256"
        }
      ],
      "payable": false,
      "stateMutability": "view",
      "type": "function"
    }
  ],
  "bytecode": "0x60806040523480156200001157600080fd5b50600080546001600160a01b03191633179081905562000043906001600160a01b03166001600160e01b03620000e016565b620000676c526163697374204d6f6e6b657960981b6001600160e01b03620001af16565b6200008869536164204d6f6e6b657960b01b6001600160e01b03620001af16565b620000ab6b4861707079204d6f6e6b657960a01b6001600160e01b03620001af16565b620000d16e506561636566756c204d6f6e6b657960881b6001600160e01b03620001af16565b62093a804201600355620002ff565b3360009081526001602052604090206003015460ff16156200011f5760405162461bcd60e51b81526004016200011690620002e4565b60405180910390fd5b6040805160a08101825260018082526000602080840182815284860183815260608601848152608087018681526001600160a01b03998a168652938690529690932094518555519284018054925190961661010002610100600160a81b031993151560ff199384161793909316929092179094559151600282015590516003909101805491151591909216179055565b6000546001600160a01b03163314620001dc5760405162461bcd60e51b81526004016200011690620002cc565b6040805180820190915290815260006020820181815260028054600181018255928190529251919092027f405787fa12a823e0f2b7631cc41b3ba8828b3321ca811111fa75cd3aa3bb5ace81019190915590517f405787fa12a823e0f2b7631cc41b3ba8828b3321ca811111fa75cd3aa3bb5acf90910155565b600062000265602783620002f6565b7f596f7520617265206e6f7420746865206c6561646572206f66207468697320658152663632b1ba34b7b760c91b602082015260400192915050565b6000620002b0600d83620002f6565b6c105b1c9958591e48195e1a5cdd609a1b815260200192915050565b60208082528101620002de8162000256565b92915050565b60208082528101620002de81620002a1565b90815260200190565b610b88806200030f6000396000f3fe608060405234801561001057600080fd5b50600436106100a95760003560e01c80633477ee2e116100715780633477ee2e1461011157806345737b1e146101325780635c19a95c14610145578063a3ec138d14610158578063b13564881461017c578063bb9aa28f14610191576100a9565b80630121b93f146100ae57806305717640146100c357806318e34eb7146100e1578063230d6ed8146100e95780632e4176cf146100fc575b600080fd5b6100c16100bc366004610773565b610199565b005b6100cb61027f565b6040516100d89190610a95565b60405180910390f35b6100c16102eb565b6100c16100f7366004610773565b6102f6565b61010461039a565b6040516100d891906109e5565b61012461011f366004610773565b6103a9565b6040516100d89291906109f3565b6100c1610140366004610773565b6103d4565b6100c161015336600461074d565b610403565b61016b61016636600461074d565b6105f7565b6040516100d8959493929190610ab1565b610184610634565b6040516100d89190610aa3565b61018461063a565b60035442106101c35760405162461bcd60e51b81526004016101ba90610a15565b60405180910390fd5b3360009081526001602052604090206003015460ff166101e6576101e633610640565b33600090815260016020526040902080546102135760405162461bcd60e51b81526004016101ba90610a25565b600181015460ff16156102385760405162461bcd60e51b81526004016101ba90610a45565b6001818101805460ff191690911790556002808201839055815481549091908490811061026157fe5b60009182526020909120600160029092020101805490910190555050565b610287610703565b5033600090815260016020818152604092839020835160a081018552815481529281015460ff80821615159385019390935261010090046001600160a01b031693830193909352600283015460608301526003909201549091161515608082015290565b6102f433610640565b565b6000546001600160a01b031633146103205760405162461bcd60e51b81526004016101ba90610a75565b6040805180820190915290815260006020820181815260028054600181018255928190529251919092027f405787fa12a823e0f2b7631cc41b3ba8828b3321ca811111fa75cd3aa3bb5ace81019190915590517f405787fa12a823e0f2b7631cc41b3ba8828b3321ca811111fa75cd3aa3bb5acf90910155565b6000546001600160a01b031681565b600281815481106103b657fe5b60009182526020909120600290910201805460019091015490915082565b6000546001600160a01b031633146103fe5760405162461bcd60e51b81526004016101ba90610a75565b600355565b60035442106104245760405162461bcd60e51b81526004016101ba90610a15565b6001600160a01b03811633141561044d5760405162461bcd60e51b81526004016101ba90610a55565b336000908152600160208190526040909120015460ff16156104815760405162461bcd60e51b81526004016101ba90610a65565b3360009081526001602052604090206003015460ff166104a4576104a433610640565b6001600160a01b03811660009081526001602052604090206003015460ff166104d0576104d081610640565b805b6001600160a01b03811660009081526001602052604090206003015460ff16801561051f57506001600160a01b038181166000908152600160208190526040909120015461010090041615155b1561056d576001600160a01b0390811660009081526001602081905260409091200154610100900416338114156105685760405162461bcd60e51b81526004016101ba90610a35565b6104d2565b336000908152600160208190526040808320808301805460ff19168417610100600160a81b0319166101006001600160a01b038816908102919091179091559054908452922080549092018255015460ff16156105f35733600090815260016020526040808220546001600160a01b038416835291206002908101548154811061026157fe5b5050565b6001602081905260009182526040909120805491810154600282015460039092015460ff808316936101009093046001600160a01b031692911685565b60035490565b60025490565b3360009081526001602052604090206003015460ff16156106735760405162461bcd60e51b81526004016101ba90610a85565b6040805160a08101825260018082526000602080840182815284860183815260608601848152608087018681526001600160a01b03998a168652938690529690932094518555519284018054925190961661010002610100600160a81b031993151560ff199384161793909316929092179094559151600282015590516003909101805491151591909216179055565b6040805160a08101825260008082526020820181905291810182905260608101829052608081019190915290565b803561073c81610b25565b92915050565b803561073c81610b3c565b60006020828403121561075f57600080fd5b600061076b8484610731565b949350505050565b60006020828403121561078557600080fd5b600061076b8484610742565b61079a81610b06565b82525050565b61079a81610b11565b61079a81610b16565b60006107bf601683610afd565b75151a1948195b1958dd1a5bdb881a185cc8195b99195960521b815260200192915050565b60006107f1601483610afd565b73486173206e6f20726967687420746f20766f746560601b815260200192915050565b6000610821602383610afd565b7f466f756e64206c6f6f7020696e2064656c65676174696f6e2c2061626f72746981526237339760e91b602082015260400192915050565b6000610866600e83610afd565b6d20b63932b0b23c903b37ba32b21760911b815260200192915050565b6000610890603983610afd565b7f596f752063616e27742064656c656761746520796f757220766f746520746f2081527f796f757273656c662c2073747570696420626173746172642e00000000000000602082015260400192915050565b60006108ef601283610afd565b712cb7ba9030b63932b0b23c903b37ba32b21760711b815260200192915050565b600061091d602783610afd565b7f596f7520617265206e6f7420746865206c6561646572206f66207468697320658152663632b1ba34b7b760c91b602082015260400192915050565b6000610966600d83610afd565b6c105b1c9958591e48195e1a5cdd609a1b815260200192915050565b805160a083019061099384826107a9565b5060208201516109a660208501826107a0565b5060408201516109b96040850182610791565b5060608201516109cc60608501826107a9565b5060808201516109df60808501826107a0565b50505050565b6020810161073c8284610791565b60408101610a0182856107a9565b610a0e60208301846107a9565b9392505050565b6020808252810161073c816107b2565b6020808252810161073c816107e4565b6020808252810161073c81610814565b6020808252810161073c81610859565b6020808252810161073c81610883565b6020808252810161073c816108e2565b6020808252810161073c81610910565b6020808252810161073c81610959565b60a0810161073c8284610982565b6020810161073c82846107a9565b60a08101610abf82886107a9565b610acc60208301876107a0565b610ad96040830186610791565b610ae660608301856107a9565b610af360808301846107a0565b9695505050505050565b90815260200190565b600061073c82610b19565b151590565b90565b6001600160a01b031690565b610b2e81610b06565b8114610b3957600080fd5b50565b610b2e81610b1656fea365627a7a7231582082a0801c3c45fb0a116e8c9e3981a282f786f0ac7f54604b5e23075e0ff017936c6578706572696d656e74616cf564736f6c63430005100040",
  "source": "pragma solidity >=0.4.22 <0.7.0;\npragma experimental ABIEncoderV2;\n\n/**\n@title Monkey election implementation\n@author Quentin Nivelais\n*/\ncontract MonkeyElection {\n    /// @title Candidate\n    /// @notice Model a Monkey Candidate\n    /// @dev name is a the candidate name\n    /// @dev voteCount is the number of vote for this candidate\n    struct Candidate {\n        bytes32 name;\n        uint256 voteCount;\n    }\n\n    /// @title Monkey voter\n    /// @notice Model a Monkey voter\n    /// @dev weight is the number of delegation to this voters (1 by default)\n    /// @dev voted is true if the voter already voted, otherwise false\n    /// @dev delegate is the address to who this voter delegate his vote, if any ?\n    /// @dev vote is the candidates index for wich candidate this voter voted\n    /// @dev isValue is true if this voter a correct value, otherwise false\n    struct Voter {\n        uint256 weight;\n        bool voted;\n        address delegate;\n        uint256 vote;\n        bool isValue;\n    }\n\n    /// @title Chairperson\n    /// @notice The responsible for this monkey election\n    address public chairperson;\n\n    /// @title Voters\n    /// @notice Map a blockchain address to a voter\n    /// @dev Key is the voter's address\n    /// @dev value is a Voter struct\n    mapping(address => Voter) public voters;\n\n    /// @title Candidates\n    /// @notice List of all the candidates for the election\n    Candidate[] public candidates;\n\n    /// @title Election's end date\n    /// @notice End date of the election\n    /// @dev Private, because only chairperson can change it\n    uint256 private endDate;\n\n    /**\n    @notice Create a new election with candidates\n    @dev The address who init this class as will be set as the election leader\n    */\n    constructor() public {\n        // The address who init this class is the leader of this election\n        chairperson = msg.sender;\n        addVoter(chairperson);\n\n        // Add some base candidate\n        addCandidate(\"Racist Monkey\");\n        addCandidate(\"Sad Monkey\");\n        addCandidate(\"Happy Monkey\");\n        addCandidate(\"Peaceful Monkey\");\n\n        // Define the end date in a week after now\n        endDate = block.timestamp + 604800;\n    }\n\n    /**\n\t@notice Add the current address to the voter pool\n    @dev This function is using the addVoter method\n\t*/\n    function participateToElection() public {\n        addVoter(msg.sender);\n    }\n\n    /**\n\t@notice Add a voters to the voter pool\n    @dev This function is using the voters mapping\n\t@param _voterAddress Voter's address\n\t*/\n    function addVoter(address _voterAddress) private {\n        require(!voters[msg.sender].isValue, \"Already exist\");\n        voters[_voterAddress] = Voter(1, false, address(0), 0, true);\n    }\n\n    /**\n\t@notice Add a canditate\n    @dev This function is using the canditates array and the state variable chairperson\n\t@param _name Candidate's name\n\t*/\n    function addCandidate(bytes32 _name) public {\n        require(\n            msg.sender == chairperson,\n            \"You are not the leader of this election\"\n        );\n        candidates.push(Candidate(_name, 0));\n    }\n\n    /**\n\t@notice Get the number of candidates\n    @dev This function is using the canditates array\n\t@return { \"value\": \"Number of candidate(s)\" }\n\t*/\n    function getCandidatesCount() public view returns (uint256) {\n        return candidates.length;\n    }\n\n    /**\n\t@notice Get current voter profile\n    @dev This function is using the voters mapping\n\t@return { \"Voter\": \"The voter(s) blockchain address\" }\n\t*/\n    function getCurrentVoterProfile() public view returns (Voter memory) {\n        return voters[msg.sender];\n    }\n\n    /**\n\t@notice Vote for a candidate\n    @dev This function is using the voters mapping and the candidates array\n\t@param _candidate The candidate position in the candidates array\n\t*/\n    function vote(uint256 _candidate) public {\n        require(block.timestamp < endDate, \"The election has ended\");\n        // Find the voter and check infos\n        if (!voters[msg.sender].isValue) {\n            // If the voter doesn't exist yet we create it\n            addVoter(msg.sender);\n        }\n        Voter storage voter = voters[msg.sender];\n        require(voter.weight != 0, \"Has no right to vote\");\n        require(!voter.voted, \"Already voted.\");\n\n        // Tell for who he voted and if he have voted\n        voter.voted = true;\n        voter.vote = _candidate;\n\n        // Add the vote to the candidate\n        candidates[_candidate].voteCount += voter.weight;\n    }\n\n    /**\n\t@notice Delegate your vote to the voter `to`\n    @dev This function is using the voters mapping and the candidates array\n\t@param _toWho Voter's address\n\t*/\n    function delegate(address _toWho) public {\n        require(block.timestamp < endDate, \"The election has ended\");\n        require(\n            _toWho != msg.sender,\n            \"You can't delegate your vote to yourself, stupid bastard.\"\n        );\n        require(!voters[msg.sender].voted, \"You already voted.\");\n        // If the voters  or the delegated voters doesn't exist yet we create it\n        if (!voters[msg.sender].isValue) {\n            addVoter(msg.sender);\n        }\n        if (!voters[_toWho].isValue) {\n            addVoter(_toWho);\n        }\n\n        // Recurcivelly delegate the votes\n        address delegateAddr = _toWho;\n        while (voters[delegateAddr].isValue && voters[delegateAddr].delegate != address(0)) {\n            delegateAddr = voters[delegateAddr].delegate;\n\n            // We found a loop in the delegation, not allowed.\n            require(\n                delegateAddr != msg.sender,\n                \"Found loop in delegation, aborting.\"\n            );\n        }\n\n        // Block the user that delegate his vote\n        voters[msg.sender].voted = true;\n        voters[msg.sender].delegate = delegateAddr;\n\n        // Find the person to wich the vote go and increase his weight\n        voters[delegateAddr].weight += voters[msg.sender].weight;\n        if (voters[delegateAddr].voted) {\n            // Increment the vote count of the delegated person if he already vote\n            candidates[voters[delegateAddr].vote].voteCount += voters[msg.sender].weight;\n        }\n    }\n\n    /**\n\t@notice Change the end date of the election\n    @dev This function is using the state variable endDate and chairperson\n\t@param _newEndDate The new election's end date\n\t*/\n    function changeEndDate(uint256 _newEndDate) public {\n        require(\n            msg.sender == chairperson,\n            \"You are not the leader of this election\"\n        );\n        endDate = _newEndDate;\n    }\n\n    /**\n\t@notice Get the end date of this election\n\t@return The election's end date\n\t*/\n    function getEndDate() public view returns (uint256) {\n        return endDate;\n    }\n}\n",
  "sourcePath": "/common/Workspace/03_Supinfo/10_5BLOC/5BLOC-VotingProject/MonkeyVotingDapp/contracts/MonkeyElection.sol",
  "compiler": {
    "name": "solc",
    "version": "0.5.16+commit.9c3226ce.Emscripten.clang"
  },
  "schemaVersion": "3.0.23",
  "updatedAt": "2020-03-19T12:44:17.573Z",
  "networkType": "ethereum",
  "devdoc": {
    "author": "Quentin Nivelais",
    "methods": {
      "addCandidate(bytes32)": {
        "details": "This function is using the canditates array and the state variable chairperson",
        "params": {
          "_name": "Candidate's name"
        }
      },
      "changeEndDate(uint256)": {
        "details": "This function is using the state variable endDate and chairperson",
        "params": {
          "_newEndDate": "The new election's end date"
        }
      },
      "constructor": {
        "details": "The address who init this class as will be set as the election leader"
      },
      "delegate(address)": {
        "details": "This function is using the voters mapping and the candidates array",
        "params": {
          "_toWho": "Voter's address"
        }
      },
      "getCandidatesCount()": {
        "details": "This function is using the canditates array",
        "return": "{ \"value\": \"Number of candidate(s)\" }"
      },
      "getCurrentVoterProfile()": {
        "details": "This function is using the voters mapping",
        "return": "{ \"Voter\": \"The voter(s) blockchain address\" }"
      },
      "getEndDate()": {
        "return": "The election's end date"
      },
      "participateToElection()": {
        "details": "This function is using the addVoter method"
      },
      "vote(uint256)": {
        "details": "This function is using the voters mapping and the candidates array",
        "params": {
          "_candidate": "The candidate position in the candidates array"
        }
      }
    },
    "title": "Monkey election implementation"
  },
  "userdoc": {
    "methods": {
      "addCandidate(bytes32)": {
        "notice": "Add a canditate"
      },
      "changeEndDate(uint256)": {
        "notice": "Change the end date of the election"
      },
      "constructor": "Create a new election with candidates",
      "delegate(address)": {
        "notice": "Delegate your vote to the voter `to`"
      },
      "getCandidatesCount()": {
        "notice": "Get the number of candidates"
      },
      "getCurrentVoterProfile()": {
        "notice": "Get current voter profile"
      },
      "getEndDate()": {
        "notice": "Get the end date of this election"
      },
      "participateToElection()": {
        "notice": "Add the current address to the voter pool"
      },
      "vote(uint256)": {
        "notice": "Vote for a candidate"
      }
    }
  }
}