{
  "contractName": "MonkeyElection",
  "abi": [
    {
      "inputs": [],
      "payable": false,
      "stateMutability": "nonpayable",
      "type": "constructor"
    },
    {
      "constant": true,
      "inputs": [
        {
          "internalType": "uint256",
          "name": "",
          "type": "uint256"
        }
      ],
      "name": "candidates",
      "outputs": [
        {
          "internalType": "bytes32",
          "name": "name",
          "type": "bytes32"
        },
        {
          "internalType": "uint256",
          "name": "voteCount",
          "type": "uint256"
        }
      ],
      "payable": false,
      "stateMutability": "view",
      "type": "function"
    },
    {
      "constant": true,
      "inputs": [],
      "name": "chairperson",
      "outputs": [
        {
          "internalType": "address",
          "name": "",
          "type": "address"
        }
      ],
      "payable": false,
      "stateMutability": "view",
      "type": "function"
    },
    {
      "constant": true,
      "inputs": [
        {
          "internalType": "address",
          "name": "",
          "type": "address"
        }
      ],
      "name": "voters",
      "outputs": [
        {
          "internalType": "uint256",
          "name": "weight",
          "type": "uint256"
        },
        {
          "internalType": "bool",
          "name": "voted",
          "type": "bool"
        },
        {
          "internalType": "address",
          "name": "delegate",
          "type": "address"
        },
        {
          "internalType": "uint256",
          "name": "vote",
          "type": "uint256"
        },
        {
          "internalType": "bool",
          "name": "isValue",
          "type": "bool"
        }
      ],
      "payable": false,
      "stateMutability": "view",
      "type": "function"
    },
    {
      "constant": false,
      "inputs": [
        {
          "internalType": "bytes32",
          "name": "_name",
          "type": "bytes32"
        }
      ],
      "name": "addCandidate",
      "outputs": [],
      "payable": false,
      "stateMutability": "nonpayable",
      "type": "function"
    },
    {
      "constant": true,
      "inputs": [],
      "name": "getCandidatesCount",
      "outputs": [
        {
          "internalType": "uint256",
          "name": "",
          "type": "uint256"
        }
      ],
      "payable": false,
      "stateMutability": "view",
      "type": "function"
    },
    {
      "constant": true,
      "inputs": [],
      "name": "getCurrentVoterProfile",
      "outputs": [
        {
          "components": [
            {
              "internalType": "uint256",
              "name": "weight",
              "type": "uint256"
            },
            {
              "internalType": "bool",
              "name": "voted",
              "type": "bool"
            },
            {
              "internalType": "address",
              "name": "delegate",
              "type": "address"
            },
            {
              "internalType": "uint256",
              "name": "vote",
              "type": "uint256"
            },
            {
              "internalType": "bool",
              "name": "isValue",
              "type": "bool"
            }
          ],
          "internalType": "struct MonkeyElection.Voter",
          "name": "",
          "type": "tuple"
        }
      ],
      "payable": false,
      "stateMutability": "view",
      "type": "function"
    },
    {
      "constant": false,
      "inputs": [
        {
          "internalType": "uint256",
          "name": "candidate",
          "type": "uint256"
        }
      ],
      "name": "vote",
      "outputs": [],
      "payable": false,
      "stateMutability": "nonpayable",
      "type": "function"
    }
  ],
  "bytecode": "0x608060405234801561001057600080fd5b50600080546001600160a01b031916331790819055610040906001600160a01b03166001600160e01b036100cb16565b6100626c526163697374204d6f6e6b657960981b6001600160e01b0361019716565b61008169536164204d6f6e6b657960b01b6001600160e01b0361019716565b6100a26b4861707079204d6f6e6b657960a01b6001600160e01b0361019716565b6100c66e506561636566756c204d6f6e6b657960881b6001600160e01b0361019716565b6102dc565b3360009081526001602052604090206003015460ff16156101075760405162461bcd60e51b81526004016100fe906102c3565b60405180910390fd5b6040805160a08101825260018082526000602080840182815284860183815260608601848152608087018681526001600160a01b03998a168652938690529690932094518555519284018054925190961661010002610100600160a81b031993151560ff199384161793909316929092179094559151600282015590516003909101805491151591909216179055565b6000546001600160a01b031633146101c15760405162461bcd60e51b81526004016100fe906102ad565b6040805180820190915290815260006020820181815260028054600181018255928190529251919092027f405787fa12a823e0f2b7631cc41b3ba8828b3321ca811111fa75cd3aa3bb5ace81019190915590517f405787fa12a823e0f2b7631cc41b3ba8828b3321ca811111fa75cd3aa3bb5acf90910155565b60006102486027836102d3565b7f596f7520617265206e6f7420746865206c6561646572206f66207468697320658152663632b1ba34b7b760c91b602082015260400192915050565b6000610291600d836102d3565b6c105b1c9958591e48195e1a5cdd609a1b815260200192915050565b602080825281016102bd8161023b565b92915050565b602080825281016102bd81610284565b90815260200190565b61078d806102eb6000396000f3fe608060405234801561001057600080fd5b506004361061007d5760003560e01c80632e4176cf1161005b5780632e4176cf146100c85780633477ee2e146100dd578063a3ec138d146100fe578063bb9aa28f146101225761007d565b80630121b93f146100825780630571764014610097578063230d6ed8146100b5575b600080fd5b6100956100903660046104bc565b610137565b005b61009f6101fc565b6040516100ac919061069a565b60405180910390f35b6100956100c33660046104bc565b610268565b6100d061030c565b6040516100ac919061062a565b6100f06100eb3660046104bc565b61031b565b6040516100ac929190610638565b61011161010c366004610496565b610346565b6040516100ac9594939291906106b6565b61012a610383565b6040516100ac91906106a8565b3360009081526001602052604090206003015460ff1661015a5761015a33610389565b33600090815260016020526040902080546101905760405162461bcd60e51b81526004016101879061065a565b60405180910390fd5b600181015460ff16156101b55760405162461bcd60e51b81526004016101879061066a565b6001818101805460ff19169091179055600280820183905581548154909190849081106101de57fe5b60009182526020909120600160029092020101805490910190555050565b61020461044c565b5033600090815260016020818152604092839020835160a081018552815481529281015460ff80821615159385019390935261010090046001600160a01b031693830193909352600283015460608301526003909201549091161515608082015290565b6000546001600160a01b031633146102925760405162461bcd60e51b81526004016101879061067a565b6040805180820190915290815260006020820181815260028054600181018255928190529251919092027f405787fa12a823e0f2b7631cc41b3ba8828b3321ca811111fa75cd3aa3bb5ace81019190915590517f405787fa12a823e0f2b7631cc41b3ba8828b3321ca811111fa75cd3aa3bb5acf90910155565b6000546001600160a01b031681565b6002818154811061032857fe5b60009182526020909120600290910201805460019091015490915082565b6001602081905260009182526040909120805491810154600282015460039092015460ff808316936101009093046001600160a01b031692911685565b60025490565b3360009081526001602052604090206003015460ff16156103bc5760405162461bcd60e51b81526004016101879061068a565b6040805160a08101825260018082526000602080840182815284860183815260608601848152608087018681526001600160a01b03998a168652938690529690932094518555519284018054925190961661010002610100600160a81b031993151560ff199384161793909316929092179094559151600282015590516003909101805491151591909216179055565b6040805160a08101825260008082526020820181905291810182905260608101829052608081019190915290565b80356104858161072a565b92915050565b803561048581610741565b6000602082840312156104a857600080fd5b60006104b4848461047a565b949350505050565b6000602082840312156104ce57600080fd5b60006104b4848461048b565b6104e38161070b565b82525050565b6104e381610716565b6104e38161071b565b6000610508601483610702565b73486173206e6f20726967687420746f20766f746560601b815260200192915050565b6000610538600e83610702565b6d20b63932b0b23c903b37ba32b21760911b815260200192915050565b6000610562602783610702565b7f596f7520617265206e6f7420746865206c6561646572206f66207468697320658152663632b1ba34b7b760c91b602082015260400192915050565b60006105ab600d83610702565b6c105b1c9958591e48195e1a5cdd609a1b815260200192915050565b805160a08301906105d884826104f2565b5060208201516105eb60208501826104e9565b5060408201516105fe60408501826104da565b50606082015161061160608501826104f2565b50608082015161062460808501826104e9565b50505050565b6020810161048582846104da565b6040810161064682856104f2565b61065360208301846104f2565b9392505050565b60208082528101610485816104fb565b602080825281016104858161052b565b6020808252810161048581610555565b602080825281016104858161059e565b60a0810161048582846105c7565b6020810161048582846104f2565b60a081016106c482886104f2565b6106d160208301876104e9565b6106de60408301866104da565b6106eb60608301856104f2565b6106f860808301846104e9565b9695505050505050565b90815260200190565b60006104858261071e565b151590565b90565b6001600160a01b031690565b6107338161070b565b811461073e57600080fd5b50565b6107338161071b56fea365627a7a723158209f9f15a25e827dad6a51a568f645ae91ceb6ede779ac11c4e42b761cb306ea046c6578706572696d656e74616cf564736f6c63430005100040",
  "source": "pragma solidity >=0.4.22 <0.7.0;\npragma experimental ABIEncoderV2;\n\ncontract MonkeyElection {\n    // Model a Monkey Candidate\n    struct Candidate {\n        bytes32 name;\n        uint256 voteCount;\n    }\n\n    // Model a Monkey voters\n    struct Voter {\n        uint256 weight; // Number of delegation to this voters (1 by default)\n        bool voted; // Is this voter already voted ?\n        address delegate; // To who this voter delegate his vote, if any ?\n        uint256 vote; // For wich candidate this voter voted\n        bool isValue; // Is this voter a correct value ?\n    }\n\n    // The responsible for this monkey election\n    address public chairperson;\n\n    // Map a blockchain address to a voter\n    mapping(address => Voter) public voters;\n\n    // List of all of our candidates\n    Candidate[] public candidates;\n\n    // Constructor\n    constructor() public {\n        // The address who init this class is the leader of this election\n        chairperson = msg.sender;\n        addVoter(chairperson);\n\n        // Add some base candidate\n        addCandidate(\"Racist Monkey\");\n        addCandidate(\"Sad Monkey\");\n        addCandidate(\"Happy Monkey\");\n        addCandidate(\"Peaceful Monkey\");\n    }\n\n    // Function to add a voters to our voter pool\n    function addVoter(address _voteraddr) private {\n        require(!voters[msg.sender].isValue, \"Already exist\");\n        voters[_voteraddr] = Voter(1, false, address(0), 0, true);\n    }\n\n    // Function to add a candidate\n    function addCandidate(bytes32 _name) public {\n        require(msg.sender == chairperson, \"You are not the leader of this election\");\n        candidates.push(Candidate(_name, 0));\n    }\n\n    // Function to get the number of candidates\n    function getCandidatesCount() public view returns (uint256) {\n        return candidates.length;\n    }\n\n    // Function to get the number of candidates\n    function getCurrentVoterProfile() public view returns (Voter memory) {\n        return voters[msg.sender];\n    }\n\n    /// Vote for a candidate to the election\n    function vote(uint candidate) public {\n        // Find the voter and check infos\n        if(!voters[msg.sender].isValue) {\n            // If the voter doesn't exist yet we create it\n            addVoter(msg.sender);\n        }\n        Voter storage voter = voters[msg.sender];\n        require(voter.weight != 0, \"Has no right to vote\");\n        require(!voter.voted, \"Already voted.\");\n\n        // Tell for who he voted and if he have voted\n        voter.voted = true;\n        voter.vote = candidate;\n\n        // Add the vote to the candidate\n        candidates[candidate].voteCount += voter.weight;\n    }\n\n}\n",
  "sourcePath": "/common/Workspace/03_Supinfo/10_5BLOC/5BLOC-VotingProject/MonkeyVotingDapp/contracts/MonkeyElection.sol",
  "compiler": {
    "name": "solc",
    "version": "0.5.16+commit.9c3226ce.Emscripten.clang"
  },
  "schemaVersion": "3.0.23",
  "updatedAt": "2020-03-18T13:26:50.709Z",
  "devdoc": {
    "methods": {}
  },
  "userdoc": {
    "methods": {
      "vote(uint256)": {
        "notice": "Vote for a candidate to the election"
      }
    }
  }
}