{
  "contractName": "MonkeyElection",
  "abi": [
    {
      "inputs": [],
      "payable": false,
      "stateMutability": "nonpayable",
      "type": "constructor"
    },
    {
      "constant": true,
      "inputs": [
        {
          "internalType": "uint256",
          "name": "",
          "type": "uint256"
        }
      ],
      "name": "candidates",
      "outputs": [
        {
          "internalType": "bytes32",
          "name": "name",
          "type": "bytes32"
        },
        {
          "internalType": "uint256",
          "name": "voteCount",
          "type": "uint256"
        }
      ],
      "payable": false,
      "stateMutability": "view",
      "type": "function"
    },
    {
      "constant": true,
      "inputs": [],
      "name": "chairperson",
      "outputs": [
        {
          "internalType": "address",
          "name": "",
          "type": "address"
        }
      ],
      "payable": false,
      "stateMutability": "view",
      "type": "function"
    },
    {
      "constant": true,
      "inputs": [
        {
          "internalType": "address",
          "name": "",
          "type": "address"
        }
      ],
      "name": "voters",
      "outputs": [
        {
          "internalType": "uint256",
          "name": "weight",
          "type": "uint256"
        },
        {
          "internalType": "bool",
          "name": "voted",
          "type": "bool"
        },
        {
          "internalType": "address",
          "name": "delegate",
          "type": "address"
        },
        {
          "internalType": "uint256",
          "name": "vote",
          "type": "uint256"
        },
        {
          "internalType": "bool",
          "name": "isValue",
          "type": "bool"
        }
      ],
      "payable": false,
      "stateMutability": "view",
      "type": "function"
    },
    {
      "constant": true,
      "inputs": [],
      "name": "getCandidatesCount",
      "outputs": [
        {
          "internalType": "uint256",
          "name": "",
          "type": "uint256"
        }
      ],
      "payable": false,
      "stateMutability": "view",
      "type": "function"
    },
    {
      "constant": true,
      "inputs": [],
      "name": "getCurrentVoterProfile",
      "outputs": [
        {
          "components": [
            {
              "internalType": "uint256",
              "name": "weight",
              "type": "uint256"
            },
            {
              "internalType": "bool",
              "name": "voted",
              "type": "bool"
            },
            {
              "internalType": "address",
              "name": "delegate",
              "type": "address"
            },
            {
              "internalType": "uint256",
              "name": "vote",
              "type": "uint256"
            },
            {
              "internalType": "bool",
              "name": "isValue",
              "type": "bool"
            }
          ],
          "internalType": "struct MonkeyElection.Voter",
          "name": "",
          "type": "tuple"
        }
      ],
      "payable": false,
      "stateMutability": "view",
      "type": "function"
    },
    {
      "constant": false,
      "inputs": [
        {
          "internalType": "uint256",
          "name": "candidate",
          "type": "uint256"
        }
      ],
      "name": "vote",
      "outputs": [],
      "payable": false,
      "stateMutability": "nonpayable",
      "type": "function"
    }
  ],
  "bytecode": "0x608060405234801561001057600080fd5b50600080546001600160a01b031916331790819055610040906001600160a01b03166001600160e01b036100cb16565b6100626c526163697374204d6f6e6b657960981b6001600160e01b0361019716565b61008169536164204d6f6e6b657960b01b6001600160e01b0361019716565b6100a26b4861707079204d6f6e6b657960a01b6001600160e01b0361019716565b6100c66e506561636566756c204d6f6e6b657960881b6001600160e01b0361019716565b610259565b3360009081526001602052604090206003015460ff16156101075760405162461bcd60e51b81526004016100fe9061023a565b60405180910390fd5b6040805160a08101825260018082526000602080840182815284860183815260608601848152608087018681526001600160a01b03998a168652938690529690932094518555519284018054925190961661010002610100600160a81b031993151560ff199384161793909316929092179094559151600282015590516003909101805491151591909216179055565b6040805180820190915290815260006020820181815260028054600181018255928190529251919092027f405787fa12a823e0f2b7631cc41b3ba8828b3321ca811111fa75cd3aa3bb5ace81019190915590517f405787fa12a823e0f2b7631cc41b3ba8828b3321ca811111fa75cd3aa3bb5acf90910155565b600061021e600d83610250565b6c105b1c9958591e48195e1a5cdd609a1b815260200192915050565b6020808252810161024a81610211565b92915050565b90815260200190565b610662806102686000396000f3fe608060405234801561001057600080fd5b50600436106100625760003560e01c80630121b93f14610067578063057176401461007c5780632e4176cf1461009a5780633477ee2e146100af578063a3ec138d146100d0578063bb9aa28f146100f4575b600080fd5b61007a6100753660046103ea565b610109565b005b6100846101ce565b604051610091919061056f565b60405180910390f35b6100a261023a565b604051610091919061050f565b6100c26100bd3660046103ea565b610249565b60405161009192919061051d565b6100e36100de3660046103c4565b610274565b60405161009195949392919061058b565b6100fc6102b1565b604051610091919061057d565b3360009081526001602052604090206003015460ff1661012c5761012c336102b7565b33600090815260016020526040902080546101625760405162461bcd60e51b81526004016101599061053f565b60405180910390fd5b600181015460ff16156101875760405162461bcd60e51b81526004016101599061054f565b6001818101805460ff19169091179055600280820183905581548154909190849081106101b057fe5b60009182526020909120600160029092020101805490910190555050565b6101d661037a565b5033600090815260016020818152604092839020835160a081018552815481529281015460ff80821615159385019390935261010090046001600160a01b031693830193909352600283015460608301526003909201549091161515608082015290565b6000546001600160a01b031681565b6002818154811061025657fe5b60009182526020909120600290910201805460019091015490915082565b6001602081905260009182526040909120805491810154600282015460039092015460ff808316936101009093046001600160a01b031692911685565b60025490565b3360009081526001602052604090206003015460ff16156102ea5760405162461bcd60e51b81526004016101599061055f565b6040805160a08101825260018082526000602080840182815284860183815260608601848152608087018681526001600160a01b03998a168652938690529690932094518555519284018054925190961661010002610100600160a81b031993151560ff199384161793909316929092179094559151600282015590516003909101805491151591909216179055565b6040805160a08101825260008082526020820181905291810182905260608101829052608081019190915290565b80356103b3816105ff565b92915050565b80356103b381610616565b6000602082840312156103d657600080fd5b60006103e284846103a8565b949350505050565b6000602082840312156103fc57600080fd5b60006103e284846103b9565b610411816105e0565b82525050565b610411816105eb565b610411816105f0565b60006104366014836105d7565b73486173206e6f20726967687420746f20766f746560601b815260200192915050565b6000610466600e836105d7565b6d20b63932b0b23c903b37ba32b21760911b815260200192915050565b6000610490600d836105d7565b6c105b1c9958591e48195e1a5cdd609a1b815260200192915050565b805160a08301906104bd8482610420565b5060208201516104d06020850182610417565b5060408201516104e36040850182610408565b5060608201516104f66060850182610420565b5060808201516105096080850182610417565b50505050565b602081016103b38284610408565b6040810161052b8285610420565b6105386020830184610420565b9392505050565b602080825281016103b381610429565b602080825281016103b381610459565b602080825281016103b381610483565b60a081016103b382846104ac565b602081016103b38284610420565b60a081016105998288610420565b6105a66020830187610417565b6105b36040830186610408565b6105c06060830185610420565b6105cd6080830184610417565b9695505050505050565b90815260200190565b60006103b3826105f3565b151590565b90565b6001600160a01b031690565b610608816105e0565b811461061357600080fd5b50565b610608816105f056fea365627a7a7231582007f7de9a54e9c4eca3a5816f9b6dd5860f7d01e762521485cf5efdd91057cfe96c6578706572696d656e74616cf564736f6c63430005100040",
  "source": "pragma solidity >=0.4.22 <0.7.0;\npragma experimental ABIEncoderV2;\n\ncontract MonkeyElection {\n    // Model a Monkey Candidate\n    struct Candidate {\n        bytes32 name;\n        uint256 voteCount;\n    }\n\n    // Model a Monkey voters\n    struct Voter {\n        uint256 weight; // Number of delegation to this voters (1 by default)\n        bool voted; // Is this voter already voted ?\n        address delegate; // To who this voter delegate his vote, if any ?\n        uint256 vote; // For wich candidate this voter voted\n        bool isValue; // Is this voter a correct value ?\n    }\n\n    // The responsible for this monkey election\n    address public chairperson;\n\n    // Map a blockchain address to a voter\n    mapping(address => Voter) public voters;\n\n    // List of all of our candidates\n    Candidate[] public candidates;\n\n    // Constructor\n    constructor() public {\n        // The address who init this class is the leader of this election\n        chairperson = msg.sender;\n        addVoter(chairperson);\n\n        // Add some base candidate\n        addCandidate(\"Racist Monkey\");\n        addCandidate(\"Sad Monkey\");\n        addCandidate(\"Happy Monkey\");\n        addCandidate(\"Peaceful Monkey\");\n    }\n\n    // Function to add a voters to our voter pool\n    function addVoter(address _voteraddr) private {\n        require(!voters[msg.sender].isValue, \"Already exist\");\n        voters[_voteraddr] = Voter(1, false, address(0), 0, true);\n    }\n\n    // Function to add a candidate\n    function addCandidate(bytes32 _name) private {\n        candidates.push(Candidate(_name, 0));\n    }\n\n    // Function to get the number of candidates\n    function getCandidatesCount() public view returns (uint256) {\n        return candidates.length;\n    }\n\n    // Function to get the number of candidates\n    function getCurrentVoterProfile() public view returns (Voter memory) {\n        return voters[msg.sender];\n    }\n\n    /// Vote for a candidate to the election\n    function vote(uint candidate) public {\n        // Find the voter and check infos\n        if(!voters[msg.sender].isValue) {\n            // If the voter doesn't exist yet we create it\n            addVoter(msg.sender);\n        }\n        Voter storage voter = voters[msg.sender];\n        require(voter.weight != 0, \"Has no right to vote\");\n        require(!voter.voted, \"Already voted.\");\n\n        // Tell for who he voted and if he have voted\n        voter.voted = true;\n        voter.vote = candidate;\n\n        // Add the vote to the candidate\n        candidates[candidate].voteCount += voter.weight;\n    }\n\n}\n",
  "sourcePath": "/common/Workspace/03_Supinfo/10_5BLOC/5BLOC-VotingProject/MonkeyVotingDapp/contracts/MonkeyElection.sol",
  "compiler": {
    "name": "solc",
    "version": "0.5.16+commit.9c3226ce.Emscripten.clang"
  },
  "schemaVersion": "3.0.23",
  "updatedAt": "2020-03-17T21:47:03.532Z",
  "networkType": "ethereum",
  "devdoc": {
    "methods": {}
  },
  "userdoc": {
    "methods": {
      "vote(uint256)": {
        "notice": "Vote for a candidate to the election"
      }
    }
  }
}