{
  "contractName": "MonkeyElection",
  "abi": [
    {
      "inputs": [],
      "payable": false,
      "stateMutability": "nonpayable",
      "type": "constructor"
    },
    {
      "constant": true,
      "inputs": [
        {
          "internalType": "uint256",
          "name": "",
          "type": "uint256"
        }
      ],
      "name": "candidates",
      "outputs": [
        {
          "internalType": "bytes32",
          "name": "name",
          "type": "bytes32"
        },
        {
          "internalType": "uint256",
          "name": "voteCount",
          "type": "uint256"
        }
      ],
      "payable": false,
      "stateMutability": "view",
      "type": "function"
    },
    {
      "constant": true,
      "inputs": [],
      "name": "chairperson",
      "outputs": [
        {
          "internalType": "address",
          "name": "",
          "type": "address"
        }
      ],
      "payable": false,
      "stateMutability": "view",
      "type": "function"
    },
    {
      "constant": true,
      "inputs": [
        {
          "internalType": "address",
          "name": "",
          "type": "address"
        }
      ],
      "name": "voters",
      "outputs": [
        {
          "internalType": "uint256",
          "name": "weight",
          "type": "uint256"
        },
        {
          "internalType": "bool",
          "name": "voted",
          "type": "bool"
        },
        {
          "internalType": "address",
          "name": "delegate",
          "type": "address"
        },
        {
          "internalType": "uint256",
          "name": "vote",
          "type": "uint256"
        }
      ],
      "payable": false,
      "stateMutability": "view",
      "type": "function"
    },
    {
      "constant": true,
      "inputs": [
        {
          "internalType": "bytes32",
          "name": "_in",
          "type": "bytes32"
        }
      ],
      "name": "convertingToString",
      "outputs": [
        {
          "internalType": "string",
          "name": "",
          "type": "string"
        }
      ],
      "payable": false,
      "stateMutability": "pure",
      "type": "function"
    },
    {
      "constant": true,
      "inputs": [],
      "name": "getCandidatesCount",
      "outputs": [
        {
          "internalType": "uint256",
          "name": "",
          "type": "uint256"
        }
      ],
      "payable": false,
      "stateMutability": "view",
      "type": "function"
    }
  ],
  "bytecode": "0x608060405234801561001057600080fd5b50600080546001600160a01b031916331790819055610040906001600160a01b03166001600160e01b036100cb16565b6100626c526163697374204d6f6e6b657960981b6001600160e01b0361014516565b61008169536164204d6f6e6b657960b01b6001600160e01b0361014516565b6100a26b4861707079204d6f6e6b657960a01b6001600160e01b0361014516565b6100c66e506561636566756c204d6f6e6b657960881b6001600160e01b0361014516565b6101bf565b60408051608081018252600180825260006020808401828152848601838152606086018481526001600160a01b03988916855292859052959092209351845590519183018054945190951661010002610100600160a81b031992151560ff1990951694909417919091169290921790925551600290910155565b6040805180820190915290815260006020820181815260028054600181018255928190529251919092027f405787fa12a823e0f2b7631cc41b3ba8828b3321ca811111fa75cd3aa3bb5ace81019190915590517f405787fa12a823e0f2b7631cc41b3ba8828b3321ca811111fa75cd3aa3bb5acf90910155565b6102d1806101ce6000396000f3fe608060405234801561001057600080fd5b50600436106100575760003560e01c8063275886171461005c5780632e4176cf146100ee5780633477ee2e14610112578063a3ec138d14610148578063bb9aa28f1461019c575b600080fd5b6100796004803603602081101561007257600080fd5b50356101b6565b6040805160208082528351818301528351919283929083019185019080838360005b838110156100b357818101518382015260200161009b565b50505050905090810190601f1680156100e05780820380516001836020036101000a031916815260200191505b509250505060405180910390f35b6100f6610228565b604080516001600160a01b039092168252519081900360200190f35b61012f6004803603602081101561012857600080fd5b5035610237565b6040805192835260208301919091528051918290030190f35b61016e6004803603602081101561015e57600080fd5b50356001600160a01b0316610262565b6040805194855292151560208501526001600160a01b03909116838301526060830152519081900360800190f35b6101a4610296565b60408051918252519081900360200190f35b60408051602080825281830190925260609182919060208201818038833901905050905060005b6020811015610221578381602081106101f257fe5b1a60f81b82828151811061020257fe5b60200101906001600160f81b031916908160001a9053506001016101dd565b5092915050565b6000546001600160a01b031681565b6002818154811061024457fe5b60009182526020909120600290910201805460019091015490915082565b600160208190526000918252604090912080549181015460029091015460ff82169161010090046001600160a01b03169084565b6002549056fea265627a7a7231582001a152b671b229b3a7456c8621fb6c0336a94a3fb9e6b4958dfff924d914633364736f6c63430005100032",
  "source": "pragma solidity >=0.4.22 <0.7.0;\n\ncontract MonkeyElection {\n    // Model a Monkey Candidate\n    struct Candidate {\n        bytes32 name;\n        uint256 voteCount;\n    }\n\n    // Model a Monkey voters\n    struct Voter {\n        uint256 weight; // Number of delegation to this voters (1 by default)\n        bool voted; // Is this voter already voted ?\n        address delegate; // To who this voter delegate his vote, if any ?\n        uint256 vote; // For wich candidate this voter voted\n    }\n\n    // The responsible for this monkey election\n    address public chairperson;\n\n    // Map a blockchain address to a voter\n    mapping(address => Voter) public voters;\n\n    // List of all of our candidates\n    Candidate[] public candidates;\n\n    // Constructor\n    constructor() public {\n        // The address who init this class is the leader of this election\n        chairperson = msg.sender;\n        addVoter(chairperson);\n\n        // Add some base candidate\n        addCandidate(\"Racist Monkey\");\n        addCandidate(\"Sad Monkey\");\n        addCandidate(\"Happy Monkey\");\n        addCandidate(\"Peaceful Monkey\");\n    }\n\n    // Function to add a voters to our voter pool\n    function addVoter(address _voteraddr) private {\n        voters[_voteraddr] = Voter(1, false, address(0), 0);\n    }\n\n    // Function to add a candidate\n    function addCandidate(bytes32 _name) private {\n        candidates.push(Candidate(_name, 0));\n    }\n\n    // Convert a bytes32 value to a string\n    function convertingToString(bytes32 _in) public pure returns (string memory) {\n        bytes memory bytesArray = new bytes(32);\n        for (uint256 i; i < 32; i++) {\n            bytesArray[i] = _in[i];\n        }\n        return string(bytesArray);\n    }\n\n    // Function to get the number of candidates\n    function getCandidatesCount() public view returns (uint256) {\n        return candidates.length;\n    }\n\n}\n",
  "sourcePath": "/common/Workspace/03_Supinfo/10_5BLOC/5BLOC-VotingProject/MonkeyVotingDapp/contracts/MonkeyElection.sol",
  "compiler": {
    "name": "solc",
    "version": "0.5.16+commit.9c3226ce.Emscripten.clang"
  },
  "schemaVersion": "3.0.23",
  "updatedAt": "2020-03-16T18:33:02.015Z",
  "networkType": "ethereum",
  "devdoc": {
    "methods": {}
  },
  "userdoc": {
    "methods": {}
  }
}