{
  "contractName": "MonkeyElection",
  "abi": [
    {
      "inputs": [],
      "payable": false,
      "stateMutability": "nonpayable",
      "type": "constructor"
    },
    {
      "constant": true,
      "inputs": [
        {
          "internalType": "uint256",
          "name": "",
          "type": "uint256"
        }
      ],
      "name": "candidates",
      "outputs": [
        {
          "internalType": "bytes32",
          "name": "name",
          "type": "bytes32"
        },
        {
          "internalType": "uint256",
          "name": "voteCount",
          "type": "uint256"
        }
      ],
      "payable": false,
      "stateMutability": "view",
      "type": "function"
    },
    {
      "constant": true,
      "inputs": [],
      "name": "chairperson",
      "outputs": [
        {
          "internalType": "address",
          "name": "",
          "type": "address"
        }
      ],
      "payable": false,
      "stateMutability": "view",
      "type": "function"
    },
    {
      "constant": true,
      "inputs": [
        {
          "internalType": "address",
          "name": "",
          "type": "address"
        }
      ],
      "name": "voters",
      "outputs": [
        {
          "internalType": "uint256",
          "name": "weight",
          "type": "uint256"
        },
        {
          "internalType": "bool",
          "name": "voted",
          "type": "bool"
        },
        {
          "internalType": "address",
          "name": "delegate",
          "type": "address"
        },
        {
          "internalType": "uint256",
          "name": "vote",
          "type": "uint256"
        },
        {
          "internalType": "bool",
          "name": "isValue",
          "type": "bool"
        }
      ],
      "payable": false,
      "stateMutability": "view",
      "type": "function"
    },
    {
      "constant": false,
      "inputs": [
        {
          "internalType": "bytes32",
          "name": "_name",
          "type": "bytes32"
        }
      ],
      "name": "addCandidate",
      "outputs": [],
      "payable": false,
      "stateMutability": "nonpayable",
      "type": "function"
    },
    {
      "constant": true,
      "inputs": [],
      "name": "getCandidatesCount",
      "outputs": [
        {
          "internalType": "uint256",
          "name": "",
          "type": "uint256"
        }
      ],
      "payable": false,
      "stateMutability": "view",
      "type": "function"
    },
    {
      "constant": true,
      "inputs": [],
      "name": "getCurrentVoterProfile",
      "outputs": [
        {
          "components": [
            {
              "internalType": "uint256",
              "name": "weight",
              "type": "uint256"
            },
            {
              "internalType": "bool",
              "name": "voted",
              "type": "bool"
            },
            {
              "internalType": "address",
              "name": "delegate",
              "type": "address"
            },
            {
              "internalType": "uint256",
              "name": "vote",
              "type": "uint256"
            },
            {
              "internalType": "bool",
              "name": "isValue",
              "type": "bool"
            }
          ],
          "internalType": "struct MonkeyElection.Voter",
          "name": "",
          "type": "tuple"
        }
      ],
      "payable": false,
      "stateMutability": "view",
      "type": "function"
    },
    {
      "constant": false,
      "inputs": [
        {
          "internalType": "uint256",
          "name": "candidate",
          "type": "uint256"
        }
      ],
      "name": "vote",
      "outputs": [],
      "payable": false,
      "stateMutability": "nonpayable",
      "type": "function"
    },
    {
      "constant": false,
      "inputs": [
        {
          "internalType": "address",
          "name": "toWho",
          "type": "address"
        }
      ],
      "name": "delegate",
      "outputs": [],
      "payable": false,
      "stateMutability": "nonpayable",
      "type": "function"
    },
    {
      "constant": false,
      "inputs": [
        {
          "internalType": "uint256",
          "name": "newEndDate",
          "type": "uint256"
        }
      ],
      "name": "changeEndDate",
      "outputs": [],
      "payable": false,
      "stateMutability": "nonpayable",
      "type": "function"
    },
    {
      "constant": true,
      "inputs": [],
      "name": "getEndDate",
      "outputs": [
        {
          "internalType": "uint256",
          "name": "",
          "type": "uint256"
        }
      ],
      "payable": false,
      "stateMutability": "view",
      "type": "function"
    }
  ],
  "bytecode": "0x60806040523480156200001157600080fd5b50600080546001600160a01b03191633179081905562000043906001600160a01b03166001600160e01b03620000d716565b620000676c526163697374204d6f6e6b657960981b6001600160e01b03620001a616565b6200008869536164204d6f6e6b657960b01b6001600160e01b03620001a616565b620000ab6b4861707079204d6f6e6b657960a01b6001600160e01b03620001a616565b620000d16e506561636566756c204d6f6e6b657960881b6001600160e01b03620001a616565b620002f6565b3360009081526001602052604090206003015460ff1615620001165760405162461bcd60e51b81526004016200010d90620002db565b60405180910390fd5b6040805160a08101825260018082526000602080840182815284860183815260608601848152608087018681526001600160a01b03998a168652938690529690932094518555519284018054925190961661010002610100600160a81b031993151560ff199384161793909316929092179094559151600282015590516003909101805491151591909216179055565b6000546001600160a01b03163314620001d35760405162461bcd60e51b81526004016200010d90620002c3565b6040805180820190915290815260006020820181815260028054600181018255928190529251919092027f405787fa12a823e0f2b7631cc41b3ba8828b3321ca811111fa75cd3aa3bb5ace81019190915590517f405787fa12a823e0f2b7631cc41b3ba8828b3321ca811111fa75cd3aa3bb5acf90910155565b60006200025c602783620002ed565b7f596f7520617265206e6f7420746865206c6561646572206f66207468697320658152663632b1ba34b7b760c91b602082015260400192915050565b6000620002a7600d83620002ed565b6c105b1c9958591e48195e1a5cdd609a1b815260200192915050565b60208082528101620002d5816200024d565b92915050565b60208082528101620002d58162000298565b90815260200190565b610ae280620003066000396000f3fe608060405234801561001057600080fd5b506004361061009e5760003560e01c806345737b1e1161006657806345737b1e1461011f5780635c19a95c14610132578063a3ec138d14610145578063b135648814610169578063bb9aa28f1461017e5761009e565b80630121b93f146100a357806305717640146100b8578063230d6ed8146100d65780632e4176cf146100e95780633477ee2e146100fe575b600080fd5b6100b66100b13660046106d3565b610186565b005b6100c061026c565b6040516100cd91906109ef565b60405180910390f35b6100b66100e43660046106d3565b6102d8565b6100f161037c565b6040516100cd919061093f565b61011161010c3660046106d3565b61038b565b6040516100cd92919061094d565b6100b661012d3660046106d3565b6103b6565b6100b66101403660046106ad565b6103e5565b6101586101533660046106ad565b610557565b6040516100cd959493929190610a0b565b610171610594565b6040516100cd91906109fd565b61017161059a565b60035442106101b05760405162461bcd60e51b81526004016101a79061096f565b60405180910390fd5b3360009081526001602052604090206003015460ff166101d3576101d3336105a0565b33600090815260016020526040902080546102005760405162461bcd60e51b81526004016101a79061097f565b600181015460ff16156102255760405162461bcd60e51b81526004016101a79061099f565b6001818101805460ff191690911790556002808201839055815481549091908490811061024e57fe5b60009182526020909120600160029092020101805490910190555050565b610274610663565b5033600090815260016020818152604092839020835160a081018552815481529281015460ff80821615159385019390935261010090046001600160a01b031693830193909352600283015460608301526003909201549091161515608082015290565b6000546001600160a01b031633146103025760405162461bcd60e51b81526004016101a7906109cf565b6040805180820190915290815260006020820181815260028054600181018255928190529251919092027f405787fa12a823e0f2b7631cc41b3ba8828b3321ca811111fa75cd3aa3bb5ace81019190915590517f405787fa12a823e0f2b7631cc41b3ba8828b3321ca811111fa75cd3aa3bb5acf90910155565b6000546001600160a01b031681565b6002818154811061039857fe5b60009182526020909120600290910201805460019091015490915082565b6000546001600160a01b031633146103e05760405162461bcd60e51b81526004016101a7906109cf565b600355565b60035442106104065760405162461bcd60e51b81526004016101a79061096f565b6001600160a01b03811633141561042f5760405162461bcd60e51b81526004016101a7906109af565b3360009081526001602081905260409091209081015460ff16156104655760405162461bcd60e51b81526004016101a7906109bf565b815b6001600160a01b03811660009081526001602052604090206003015460ff16156104d4576001600160a01b0390811660009081526001602081905260409091200154610100900416338114156104cf5760405162461bcd60e51b81526004016101a79061098f565b610467565b6001828101805460ff19168217610100600160a81b0319166101006001600160a01b038516908102919091179091556000908152602082905260409020835481540181559081015460ff16156105515782546002828101548154811061053657fe5b60009182526020909120600160029092020101805490910190555b50505050565b6001602081905260009182526040909120805491810154600282015460039092015460ff808316936101009093046001600160a01b031692911685565b60035490565b60025490565b3360009081526001602052604090206003015460ff16156105d35760405162461bcd60e51b81526004016101a7906109df565b6040805160a08101825260018082526000602080840182815284860183815260608601848152608087018681526001600160a01b03998a168652938690529690932094518555519284018054925190961661010002610100600160a81b031993151560ff199384161793909316929092179094559151600282015590516003909101805491151591909216179055565b6040805160a08101825260008082526020820181905291810182905260608101829052608081019190915290565b803561069c81610a7f565b92915050565b803561069c81610a96565b6000602082840312156106bf57600080fd5b60006106cb8484610691565b949350505050565b6000602082840312156106e557600080fd5b60006106cb84846106a2565b6106fa81610a60565b82525050565b6106fa81610a6b565b6106fa81610a70565b600061071f601683610a57565b75151a1948195b1958dd1a5bdb881a185cc8195b99195960521b815260200192915050565b6000610751601483610a57565b73486173206e6f20726967687420746f20766f746560601b815260200192915050565b6000610781602383610a57565b7f466f756e64206c6f6f7020696e2064656c65676174696f6e2c2061626f72746981526237339760e91b602082015260400192915050565b60006107c6600e83610a57565b6d20b63932b0b23c903b37ba32b21760911b815260200192915050565b60006107f0603983610a57565b7f596f752063616e27742064656c656761746520796f757220766f746520746f2081527f796f757273656c662c2073747570696420626173746172642e00000000000000602082015260400192915050565b600061084f601283610a57565b712cb7ba9030b63932b0b23c903b37ba32b21760711b815260200192915050565b600061087d602783610a57565b7f596f7520617265206e6f7420746865206c6561646572206f66207468697320658152663632b1ba34b7b760c91b602082015260400192915050565b60006108c6600d83610a57565b6c105b1c9958591e48195e1a5cdd609a1b815260200192915050565b805160a08301906108f38482610709565b5060208201516109066020850182610700565b50604082015161091960408501826106f1565b50606082015161092c6060850182610709565b5060808201516105516080850182610700565b6020810161069c82846106f1565b6040810161095b8285610709565b6109686020830184610709565b9392505050565b6020808252810161069c81610712565b6020808252810161069c81610744565b6020808252810161069c81610774565b6020808252810161069c816107b9565b6020808252810161069c816107e3565b6020808252810161069c81610842565b6020808252810161069c81610870565b6020808252810161069c816108b9565b60a0810161069c82846108e2565b6020810161069c8284610709565b60a08101610a198288610709565b610a266020830187610700565b610a3360408301866106f1565b610a406060830185610709565b610a4d6080830184610700565b9695505050505050565b90815260200190565b600061069c82610a73565b151590565b90565b6001600160a01b031690565b610a8881610a60565b8114610a9357600080fd5b50565b610a8881610a7056fea365627a7a723158200cb0b82fcbe14f58ccae46a6e66448c69e00cca1462e44bb65b1036650424ece6c6578706572696d656e74616cf564736f6c63430005100040",
  "source": "pragma solidity >=0.4.22 <0.7.0;\npragma experimental ABIEncoderV2;\n\ncontract MonkeyElection {\n    // Model a Monkey Candidate\n    struct Candidate {\n        bytes32 name;\n        uint256 voteCount;\n    }\n\n    // Model a Monkey voters\n    struct Voter {\n        uint256 weight; // Number of delegation to this voters (1 by default)\n        bool voted; // Is this voter already voted ?\n        address delegate; // To who this voter delegate his vote, if any ?\n        uint256 vote; // For wich candidate this voter voted\n        bool isValue; // Is this voter a correct value ?\n    }\n\n    // The responsible for this monkey election\n    address public chairperson;\n\n    // Map a blockchain address to a voter\n    mapping(address => Voter) public voters;\n\n    // List of all of our candidates\n    Candidate[] public candidates;\n\n    // End date of the election (private, because only chairperson can change it)\n    uint private endDate;\n\n    // Constructor\n    constructor() public {\n        // The address who init this class is the leader of this election\n        chairperson = msg.sender;\n        addVoter(chairperson);\n\n        // Add some base candidate\n        addCandidate(\"Racist Monkey\");\n        addCandidate(\"Sad Monkey\");\n        addCandidate(\"Happy Monkey\");\n        addCandidate(\"Peaceful Monkey\");\n    }\n\n    // Function to add a voters to our voter pool\n    function addVoter(address _voteraddr) private {\n        require(!voters[msg.sender].isValue, \"Already exist\");\n        voters[_voteraddr] = Voter(1, false, address(0), 0, true);\n    }\n\n    // Function to add a candidate\n    function addCandidate(bytes32 _name) public {\n        require(\n            msg.sender == chairperson,\n            \"You are not the leader of this election\"\n        );\n        candidates.push(Candidate(_name, 0));\n    }\n\n    // Function to get the number of candidates\n    function getCandidatesCount() public view returns (uint256) {\n        return candidates.length;\n    }\n\n    // Function to get the number of candidates\n    function getCurrentVoterProfile() public view returns (Voter memory) {\n        return voters[msg.sender];\n    }\n\n    /// Vote for a candidate to the election\n    function vote(uint256 candidate) public {\n        require(block.timestamp < endDate, \"The election has ended\");\n        // Find the voter and check infos\n        if (!voters[msg.sender].isValue) {\n            // If the voter doesn't exist yet we create it\n            addVoter(msg.sender);\n        }\n        Voter storage voter = voters[msg.sender];\n        require(voter.weight != 0, \"Has no right to vote\");\n        require(!voter.voted, \"Already voted.\");\n\n        // Tell for who he voted and if he have voted\n        voter.voted = true;\n        voter.vote = candidate;\n\n        // Add the vote to the candidate\n        candidates[candidate].voteCount += voter.weight;\n    }\n\n    /// Delegate your vote to the voter `to`.\n    function delegate(address toWho) public {\n        require(block.timestamp < endDate, \"The election has ended\");\n        require(toWho != msg.sender, \"You can't delegate your vote to yourself, stupid bastard.\");\n\n        // Find the original voter\n        Voter storage sender = voters[msg.sender];\n        require(!sender.voted, \"You already voted.\");\n\n        // Recurcivelly delegate the votes\n        address finalDelegateAddress = toWho;\n        while (voters[finalDelegateAddress].isValue) {\n            finalDelegateAddress = voters[finalDelegateAddress].delegate;\n\n            // We found a loop in the delegation, not allowed.\n            require(finalDelegateAddress != msg.sender, \"Found loop in delegation, aborting.\");\n        }\n\n        // Block the user that delegate his vote\n        sender.voted = true;\n        sender.delegate = finalDelegateAddress;\n\n        // Find the person to wich the vote go and increase his weight\n        Voter storage delegate_ = voters[finalDelegateAddress];\n        delegate_.weight += sender.weight;\n        if (delegate_.voted) {\n            // Increment the vote count of the delegated person if he already vote\n            candidates[delegate_.vote].voteCount += sender.weight;\n        }\n    }\n\n    // Change the end date of the election\n    function changeEndDate(uint newEndDate) public {\n        require(\n            msg.sender == chairperson,\n            \"You are not the leader of this election\"\n        );\n        endDate = newEndDate;\n    }\n\n    // Get the end date of this election\n    function getEndDate() public view returns(uint) {\n        return endDate;\n    }\n}\n",
  "sourcePath": "/common/Workspace/03_Supinfo/10_5BLOC/5BLOC-VotingProject/MonkeyVotingDapp/contracts/MonkeyElection.sol",
  "compiler": {
    "name": "solc",
    "version": "0.5.16+commit.9c3226ce.Emscripten.clang"
  },
  "schemaVersion": "3.0.23",
  "updatedAt": "2020-03-18T14:44:31.071Z",
  "networkType": "ethereum",
  "devdoc": {
    "methods": {}
  },
  "userdoc": {
    "methods": {
      "delegate(address)": {
        "notice": "Delegate your vote to the voter `to`."
      },
      "vote(uint256)": {
        "notice": "Vote for a candidate to the election"
      }
    }
  }
}